{
  "contractName": "ProjectChain",
  "abi": [
    {
      "inputs": [],
      "payable": false,
      "stateMutability": "nonpayable",
      "type": "constructor"
    },
    {
      "anonymous": false,
      "inputs": [
        {
          "indexed": false,
          "internalType": "uint256",
          "name": "projId",
          "type": "uint256"
        },
        {
          "indexed": false,
          "internalType": "string",
          "name": "prevHash",
          "type": "string"
        },
        {
          "indexed": false,
          "internalType": "string",
          "name": "projHash",
          "type": "string"
        },
        {
          "indexed": false,
          "internalType": "uint256",
          "name": "projSize",
          "type": "uint256"
        },
        {
          "indexed": false,
          "internalType": "string",
          "name": "projType",
          "type": "string"
        },
        {
          "indexed": false,
          "internalType": "string",
          "name": "projName",
          "type": "string"
        },
        {
          "indexed": false,
          "internalType": "string",
          "name": "projDesc",
          "type": "string"
        },
        {
          "indexed": false,
          "internalType": "uint256",
          "name": "uploadTime",
          "type": "uint256"
        },
        {
          "indexed": false,
          "internalType": "address payable",
          "name": "auther",
          "type": "address"
        }
      ],
      "name": "ProjUploaded",
      "type": "event"
    },
    {
      "anonymous": false,
      "inputs": [
        {
          "indexed": false,
          "internalType": "uint256",
          "name": "userId",
          "type": "uint256"
        }
      ],
      "name": "UserLoggedIn",
      "type": "event"
    },
    {
      "anonymous": false,
      "inputs": [
        {
          "indexed": false,
          "internalType": "uint256",
          "name": "userId",
          "type": "uint256"
        },
        {
          "indexed": false,
          "internalType": "string",
          "name": "userName",
          "type": "string"
        },
        {
          "indexed": false,
          "internalType": "string",
          "name": "userPwd",
          "type": "string"
        },
        {
          "indexed": false,
          "internalType": "address payable",
          "name": "walAdd",
          "type": "address"
        }
      ],
      "name": "UserRegistered",
      "type": "event"
    },
    {
      "constant": true,
      "inputs": [],
      "name": "currentUser",
      "outputs": [
        {
          "internalType": "uint256",
          "name": "",
          "type": "uint256"
        }
      ],
      "payable": false,
      "stateMutability": "view",
      "type": "function"
    },
    {
      "constant": true,
      "inputs": [],
      "name": "name",
      "outputs": [
        {
          "internalType": "string",
          "name": "",
          "type": "string"
        }
      ],
      "payable": false,
      "stateMutability": "view",
      "type": "function"
    },
    {
      "constant": true,
      "inputs": [],
      "name": "projCount",
      "outputs": [
        {
          "internalType": "uint256",
          "name": "",
          "type": "uint256"
        }
      ],
      "payable": false,
      "stateMutability": "view",
      "type": "function"
    },
    {
      "constant": true,
      "inputs": [
        {
          "internalType": "uint256",
          "name": "",
          "type": "uint256"
        }
      ],
      "name": "projects",
      "outputs": [
        {
          "internalType": "uint256",
          "name": "projId",
          "type": "uint256"
        },
        {
          "internalType": "string",
          "name": "prevHash",
          "type": "string"
        },
        {
          "internalType": "string",
          "name": "projHash",
          "type": "string"
        },
        {
          "internalType": "uint256",
          "name": "projSize",
          "type": "uint256"
        },
        {
          "internalType": "string",
          "name": "projType",
          "type": "string"
        },
        {
          "internalType": "string",
          "name": "projName",
          "type": "string"
        },
        {
          "internalType": "string",
          "name": "projDesc",
          "type": "string"
        },
        {
          "internalType": "uint256",
          "name": "uploadTime",
          "type": "uint256"
        },
        {
          "internalType": "address payable",
          "name": "auther",
          "type": "address"
        }
      ],
      "payable": false,
      "stateMutability": "view",
      "type": "function"
    },
    {
      "constant": true,
      "inputs": [],
      "name": "userCount",
      "outputs": [
        {
          "internalType": "uint256",
          "name": "",
          "type": "uint256"
        }
      ],
      "payable": false,
      "stateMutability": "view",
      "type": "function"
    },
    {
      "constant": true,
      "inputs": [
        {
          "internalType": "uint256",
          "name": "",
          "type": "uint256"
        }
      ],
      "name": "users",
      "outputs": [
        {
          "internalType": "uint256",
          "name": "userId",
          "type": "uint256"
        },
        {
          "internalType": "string",
          "name": "userName",
          "type": "string"
        },
        {
          "internalType": "string",
          "name": "userPwd",
          "type": "string"
        },
        {
          "internalType": "address payable",
          "name": "walAdd",
          "type": "address"
        }
      ],
      "payable": false,
      "stateMutability": "view",
      "type": "function"
    },
    {
      "constant": false,
      "inputs": [
        {
          "internalType": "string",
          "name": "_userName",
          "type": "string"
        },
        {
          "internalType": "string",
          "name": "_pwd",
          "type": "string"
        }
      ],
      "name": "regUser",
      "outputs": [],
      "payable": false,
      "stateMutability": "nonpayable",
      "type": "function"
    },
    {
      "constant": false,
      "inputs": [
        {
          "internalType": "uint256",
          "name": "_Id",
          "type": "uint256"
        }
      ],
      "name": "loginUser",
      "outputs": [],
      "payable": false,
      "stateMutability": "nonpayable",
      "type": "function"
    },
    {
      "constant": false,
      "inputs": [
        {
          "internalType": "string",
          "name": "_projHash",
          "type": "string"
        },
        {
          "internalType": "uint256",
          "name": "_projSize",
          "type": "uint256"
        },
        {
          "internalType": "string",
          "name": "_projType",
          "type": "string"
        },
        {
          "internalType": "string",
          "name": "_projName",
          "type": "string"
        },
        {
          "internalType": "string",
          "name": "_projDesc",
          "type": "string"
        }
      ],
      "name": "uploadProj",
      "outputs": [],
      "payable": false,
      "stateMutability": "nonpayable",
      "type": "function"
    }
  ],
  "bytecode": "0x60806040526040518060400160405280600c81526020017f50726f6a656374436861696e0000000000000000000000000000000000000000815250600090805190602001906200005192919062000075565b506000600155600060025560006004553480156200006e57600080fd5b5062000124565b828054600181600116156101000203166002900490600052602060002090601f016020900481019282601f10620000b857805160ff1916838001178555620000e9565b82800160010185558215620000e9579182015b82811115620000e8578251825591602001919060010190620000cb565b5b509050620000f89190620000fc565b5090565b6200012191905b808211156200011d57600081600090555060010162000103565b5090565b90565b61184780620001346000396000f3fe608060405234801561001057600080fd5b50600436106100935760003560e01c8063365b98b211610066578063365b98b21461052a578063620137fe1461067757806392ee033414610901578063af34b6ae1461091f578063b6f56e791461093d57610093565b806306fdde031461009857806307973ccf1461011b578063107046bd146101395780631ffed892146103d8575b600080fd5b6100a061096b565b6040518080602001828103825283818151815260200191508051906020019080838360005b838110156100e05780820151818401526020810190506100c5565b50505050905090810190601f16801561010d5780820380516001836020036101000a031916815260200191505b509250505060405180910390f35b610123610a09565b6040518082815260200191505060405180910390f35b6101656004803603602081101561014f57600080fd5b8101908080359060200190929190505050610a0f565b604051808a815260200180602001806020018981526020018060200180602001806020018881526020018773ffffffffffffffffffffffffffffffffffffffff1673ffffffffffffffffffffffffffffffffffffffff16815260200186810386528e818151815260200191508051906020019080838360005b838110156101f95780820151818401526020810190506101de565b50505050905090810190601f1680156102265780820380516001836020036101000a031916815260200191505b5086810385528d818151815260200191508051906020019080838360005b8381101561025f578082015181840152602081019050610244565b50505050905090810190601f16801561028c5780820380516001836020036101000a031916815260200191505b5086810384528b818151815260200191508051906020019080838360005b838110156102c55780820151818401526020810190506102aa565b50505050905090810190601f1680156102f25780820380516001836020036101000a031916815260200191505b5086810383528a818151815260200191508051906020019080838360005b8381101561032b578082015181840152602081019050610310565b50505050905090810190601f1680156103585780820380516001836020036101000a031916815260200191505b50868103825289818151815260200191508051906020019080838360005b83811015610391578082015181840152602081019050610376565b50505050905090810190601f1680156103be5780820380516001836020036101000a031916815260200191505b509e50505050505050505050505050505060405180910390f35b610528600480360360408110156103ee57600080fd5b810190808035906020019064010000000081111561040b57600080fd5b82018360208201111561041d57600080fd5b8035906020019184600183028401116401000000008311171561043f57600080fd5b91908080601f016020809104026020016040519081016040528093929190818152602001838380828437600081840152601f19601f820116905080830192505050505050509192919290803590602001906401000000008111156104a257600080fd5b8201836020820111156104b457600080fd5b803590602001918460018302840111640100000000831117156104d657600080fd5b91908080601f016020809104026020016040519081016040528093929190818152602001838380828437600081840152601f19601f820116905080830192505050505050509192919290505050610d75565b005b6105566004803603602081101561054057600080fd5b8101908080359060200190929190505050611004565b6040518085815260200180602001806020018473ffffffffffffffffffffffffffffffffffffffff1673ffffffffffffffffffffffffffffffffffffffff168152602001838103835286818151815260200191508051906020019080838360005b838110156105d25780820151818401526020810190506105b7565b50505050905090810190601f1680156105ff5780820380516001836020036101000a031916815260200191505b50838103825285818151815260200191508051906020019080838360005b8381101561063857808201518184015260208101905061061d565b50505050905090810190601f1680156106655780820380516001836020036101000a031916815260200191505b50965050505050505060405180910390f35b6108ff600480360360a081101561068d57600080fd5b81019080803590602001906401000000008111156106aa57600080fd5b8201836020820111156106bc57600080fd5b803590602001918460018302840111640100000000831117156106de57600080fd5b91908080601f016020809104026020016040519081016040528093929190818152602001838380828437600081840152601f19601f820116905080830192505050505050509192919290803590602001909291908035906020019064010000000081111561074b57600080fd5b82018360208201111561075d57600080fd5b8035906020019184600183028401116401000000008311171561077f57600080fd5b91908080601f016020809104026020016040519081016040528093929190818152602001838380828437600081840152601f19601f820116905080830192505050505050509192919290803590602001906401000000008111156107e257600080fd5b8201836020820111156107f457600080fd5b8035906020019184600183028401116401000000008311171561081657600080fd5b91908080601f016020809104026020016040519081016040528093929190818152602001838380828437600081840152601f19601f8201169050808301925050505050505091929192908035906020019064010000000081111561087957600080fd5b82018360208201111561088b57600080fd5b803590602001918460018302840111640100000000831117156108ad57600080fd5b91908080601f016020809104026020016040519081016040528093929190818152602001838380828437600081840152601f19601f820116905080830192505050505050509192919290505050611184565b005b610909611720565b6040518082815260200191505060405180910390f35b610927611726565b6040518082815260200191505060405180910390f35b6109696004803603602081101561095357600080fd5b810190808035906020019092919050505061172c565b005b60008054600181600116156101000203166002900480601f016020809104026020016040519081016040528092919081815260200182805460018160011615610100020316600290048015610a015780601f106109d657610100808354040283529160200191610a01565b820191906000526020600020905b8154815290600101906020018083116109e457829003601f168201915b505050505081565b60045481565b6003602052806000526040600020600091509050806000015490806001018054600181600116156101000203166002900480601f016020809104026020016040519081016040528092919081815260200182805460018160011615610100020316600290048015610ac15780601f10610a9657610100808354040283529160200191610ac1565b820191906000526020600020905b815481529060010190602001808311610aa457829003601f168201915b505050505090806002018054600181600116156101000203166002900480601f016020809104026020016040519081016040528092919081815260200182805460018160011615610100020316600290048015610b5f5780601f10610b3457610100808354040283529160200191610b5f565b820191906000526020600020905b815481529060010190602001808311610b4257829003601f168201915b505050505090806003015490806004018054600181600116156101000203166002900480601f016020809104026020016040519081016040528092919081815260200182805460018160011615610100020316600290048015610c035780601f10610bd857610100808354040283529160200191610c03565b820191906000526020600020905b815481529060010190602001808311610be657829003601f168201915b505050505090806005018054600181600116156101000203166002900480601f016020809104026020016040519081016040528092919081815260200182805460018160011615610100020316600290048015610ca15780601f10610c7657610100808354040283529160200191610ca1565b820191906000526020600020905b815481529060010190602001808311610c8457829003601f168201915b505050505090806006018054600181600116156101000203166002900480601f016020809104026020016040519081016040528092919081815260200182805460018160011615610100020316600290048015610d3f5780601f10610d1457610100808354040283529160200191610d3f565b820191906000526020600020905b815481529060010190602001808311610d2257829003601f168201915b5050505050908060070154908060080160009054906101000a900473ffffffffffffffffffffffffffffffffffffffff16905089565b6000825111610d8357600080fd5b6000815111610d9157600080fd5b600073ffffffffffffffffffffffffffffffffffffffff163373ffffffffffffffffffffffffffffffffffffffff161415610dcb57600080fd5b600460008154809291906001019190505550604051806080016040528060045481526020018381526020018281526020013373ffffffffffffffffffffffffffffffffffffffff16815250600560006004548152602001908152602001600020600082015181600001556020820151816001019080519060200190610e5192919061176d565b506040820151816002019080519060200190610e6e92919061176d565b5060608201518160030160006101000a81548173ffffffffffffffffffffffffffffffffffffffff021916908373ffffffffffffffffffffffffffffffffffffffff1602179055509050507f40338c70a446f0ba365fc0489113a2f74ba912dae0f24fb8f8568f446e6f0c806004548383336040518085815260200180602001806020018473ffffffffffffffffffffffffffffffffffffffff1673ffffffffffffffffffffffffffffffffffffffff168152602001838103835286818151815260200191508051906020019080838360005b83811015610f5c578082015181840152602081019050610f41565b50505050905090810190601f168015610f895780820380516001836020036101000a031916815260200191505b50838103825285818151815260200191508051906020019080838360005b83811015610fc2578082015181840152602081019050610fa7565b50505050905090810190601f168015610fef5780820380516001836020036101000a031916815260200191505b50965050505050505060405180910390a15050565b6005602052806000526040600020600091509050806000015490806001018054600181600116156101000203166002900480601f0160208091040260200160405190810160405280929190818152602001828054600181600116156101000203166002900480156110b65780601f1061108b576101008083540402835291602001916110b6565b820191906000526020600020905b81548152906001019060200180831161109957829003601f168201915b505050505090806002018054600181600116156101000203166002900480601f0160208091040260200160405190810160405280929190818152602001828054600181600116156101000203166002900480156111545780601f1061112957610100808354040283529160200191611154565b820191906000526020600020905b81548152906001019060200180831161113757829003601f168201915b5050505050908060030160009054906101000a900473ffffffffffffffffffffffffffffffffffffffff16905084565b600085511161119257600080fd5b60008351116111a057600080fd5b60008251116111ae57600080fd5b60008151116111bc57600080fd5b600073ffffffffffffffffffffffffffffffffffffffff163373ffffffffffffffffffffffffffffffffffffffff1614156111f657600080fd5b6000841161120357600080fd5b6060600060025411156112c8576003600060025481526020019081526020016000206002018054600181600116156101000203166002900480601f0160208091040260200160405190810160405280929190818152602001828054600181600116156101000203166002900480156112bc5780601f10611291576101008083540402835291602001916112bc565b820191906000526020600020905b81548152906001019060200180831161129f57829003601f168201915b50505050509050611301565b6040518060400160405280600481526020017f726f6f740000000000000000000000000000000000000000000000000000000081525090505b60026000815480929190600101919050555060405180610120016040528060025481526020018281526020018781526020018681526020018581526020018481526020018381526020014281526020013373ffffffffffffffffffffffffffffffffffffffff168152506003600060025481526020019081526020016000206000820151816000015560208201518160010190805190602001906113a692919061176d565b5060408201518160020190805190602001906113c392919061176d565b506060820151816003015560808201518160040190805190602001906113ea92919061176d565b5060a082015181600501908051906020019061140792919061176d565b5060c082015181600601908051906020019061142492919061176d565b5060e082015181600701556101008201518160080160006101000a81548173ffffffffffffffffffffffffffffffffffffffff021916908373ffffffffffffffffffffffffffffffffffffffff1602179055509050507f217255865ef8ce0ecdc0a064a6a96094458d191b62ea6e021ecd77a0b98697a06002548288888888884233604051808a815260200180602001806020018981526020018060200180602001806020018881526020018773ffffffffffffffffffffffffffffffffffffffff1673ffffffffffffffffffffffffffffffffffffffff16815260200186810386528e818151815260200191508051906020019080838360005b8381101561153a57808201518184015260208101905061151f565b50505050905090810190601f1680156115675780820380516001836020036101000a031916815260200191505b5086810385528d818151815260200191508051906020019080838360005b838110156115a0578082015181840152602081019050611585565b50505050905090810190601f1680156115cd5780820380516001836020036101000a031916815260200191505b5086810384528b818151815260200191508051906020019080838360005b838110156116065780820151818401526020810190506115eb565b50505050905090810190601f1680156116335780820380516001836020036101000a031916815260200191505b5086810383528a818151815260200191508051906020019080838360005b8381101561166c578082015181840152602081019050611651565b50505050905090810190601f1680156116995780820380516001836020036101000a031916815260200191505b50868103825289818151815260200191508051906020019080838360005b838110156116d25780820151818401526020810190506116b7565b50505050905090810190601f1680156116ff5780820380516001836020036101000a031916815260200191505b509e50505050505050505050505050505060405180910390a1505050505050565b60015481565b60025481565b806001819055507f8da165e44099029a26070fbe203af2f47d6f35e91b6b3621c1fd830139a48b92816040518082815260200191505060405180910390a150565b828054600181600116156101000203166002900490600052602060002090601f016020900481019282601f106117ae57805160ff19168380011785556117dc565b828001600101855582156117dc579182015b828111156117db5782518255916020019190600101906117c0565b5b5090506117e991906117ed565b5090565b61180f91905b8082111561180b5760008160009055506001016117f3565b5090565b9056fea265627a7a72315820f81de7cde3f412b978dec7e4facb4ecb46d19b85f5dfa3a6ac3f41c71e9890a864736f6c63430005100032",
  "source": "pragma solidity ^0.5.0;\n\ncontract ProjectChain {\n    string public name = \"ProjectChain\";\n\n    uint256 public currentUser = 0;\n\n    uint256 public projCount = 0;\n    mapping(uint256 => Project) public projects;\n\n    uint256 public userCount = 0;\n    mapping(uint256 => User) public users;\n\n    struct User {\n        uint256 userId;\n        string userName;\n        string userPwd;\n        address payable walAdd;\n        mapping(uint256 => Project) myProjects;\n    }\n    event UserRegistered(\n        uint256 userId,\n        string userName,\n        string userPwd,\n        address payable walAdd\n    );\n    event UserLoggedIn(\n        uint256 userId\n    );\n    // Struct\n    struct Project {\n        uint256 projId;\n        string prevHash;\n        string projHash;\n        uint256 projSize;\n        string projType;\n        string projName;\n        string projDesc;\n        uint256 uploadTime;\n        address payable auther;\n    }\n\n    event ProjUploaded(\n        uint256 projId,\n        string prevHash,\n        string projHash,\n        uint256 projSize,\n        string projType,\n        string projName,\n        string projDesc,\n        uint256 uploadTime,\n        address payable auther\n    );\n\n    constructor() public {}\n\n    function regUser(string memory _userName, string memory _pwd) public {\n        require(bytes(_userName).length > 0);\n        require(bytes(_pwd).length > 0);\n        require(msg.sender != address(0));\n        userCount++;\n        users[userCount] = User(userCount, _userName, _pwd, msg.sender);\n        emit UserRegistered(userCount, _userName, _pwd, msg.sender);\n    }\n\n    function loginUser(uint256 _Id) public {\n        currentUser=_Id; \n        emit UserLoggedIn(_Id);\n    //     require(bytes(_userName).length > 0);\n    //     require(msg.sender != address(0));\n    //     bytes32 pass = keccak256(abi.encodePacked(_pwd));\n    //     for (uint8 i = 1; i <= userCount; i++) {\n    //         string memory uname=users[i].userName;\n    //         if (keccak256(abi.encodePacked(uname)) == keccak256(abi.encodePacked(_userName)))\n    //             if (users[i].pwdHash == pass) {\n    //                 currentUser = users[i].userId;\n    //                 emit UserLoggedIn(userCount, _userName, pass, msg.sender);\n    //             }\n    //     }\n    }\n\n    function uploadProj(\n        string memory _projHash,\n        uint256 _projSize,\n        string memory _projType,\n        string memory _projName,\n        string memory _projDesc\n    ) public {\n        require(bytes(_projHash).length > 0);\n        require(bytes(_projType).length > 0);\n        require(bytes(_projName).length > 0);\n        require(bytes(_projDesc).length > 0);\n        require(msg.sender != address(0));\n\n        require(_projSize > 0);\n\n        string memory prev;\n        if (projCount > 0) prev = projects[projCount].projHash;\n        else prev = \"root\";\n\n        projCount++;\n\n        projects[projCount] = Project(\n            projCount,\n            prev,\n            _projHash,\n            _projSize,\n            _projType,\n            _projName,\n            _projDesc,\n            now,\n            msg.sender\n        );\n\n        emit ProjUploaded(\n            projCount,\n            prev,\n            _projHash,\n            _projSize,\n            _projType,\n            _projName,\n            _projDesc,\n            now,\n            msg.sender\n        );\n    }\n}\n",
  "sourcePath": "D:\\Projects\\ProjectChain\\src\\contracts\\ProjectChain.sol",
  "compiler": {
    "name": "solc",
    "version": "0.5.16+commit.9c3226ce.Emscripten.clang"
  },
  "schemaVersion": "3.4.10",
  "updatedAt": "2022-11-22T06:56:08.174Z",
  "networkType": "ethereum",
  "devdoc": {
    "methods": {}
  },
  "userdoc": {
    "methods": {}
  }
}