{
  "contractName": "ProjectChain",
  "abi": [
    {
      "inputs": [],
      "payable": false,
      "stateMutability": "nonpayable",
      "type": "constructor"
    },
    {
      "anonymous": false,
      "inputs": [
        {
          "indexed": false,
          "internalType": "uint256",
          "name": "blockId",
          "type": "uint256"
        },
        {
          "indexed": false,
          "internalType": "bytes32",
          "name": "blockHash",
          "type": "bytes32"
        },
        {
          "indexed": false,
          "internalType": "bytes32",
          "name": "preHash",
          "type": "bytes32"
        }
      ],
      "name": "BlockMined",
      "type": "event"
    },
    {
      "anonymous": false,
      "inputs": [
        {
          "indexed": false,
          "internalType": "uint256",
          "name": "projId",
          "type": "uint256"
        },
        {
          "indexed": false,
          "internalType": "string",
          "name": "prevHash",
          "type": "string"
        },
        {
          "indexed": false,
          "internalType": "string",
          "name": "projHash",
          "type": "string"
        },
        {
          "indexed": false,
          "internalType": "uint256",
          "name": "projSize",
          "type": "uint256"
        },
        {
          "indexed": false,
          "internalType": "string",
          "name": "projType",
          "type": "string"
        },
        {
          "indexed": false,
          "internalType": "string",
          "name": "projName",
          "type": "string"
        },
        {
          "indexed": false,
          "internalType": "string",
          "name": "projDesc",
          "type": "string"
        },
        {
          "indexed": false,
          "internalType": "uint256",
          "name": "uploadTime",
          "type": "uint256"
        },
        {
          "indexed": false,
          "internalType": "address payable",
          "name": "auther",
          "type": "address"
        }
      ],
      "name": "ProjUploaded",
      "type": "event"
    },
    {
      "anonymous": false,
      "inputs": [
        {
          "indexed": false,
          "internalType": "uint256",
          "name": "userId",
          "type": "uint256"
        },
        {
          "indexed": false,
          "internalType": "string",
          "name": "userName",
          "type": "string"
        },
        {
          "indexed": false,
          "internalType": "string",
          "name": "userPwd",
          "type": "string"
        },
        {
          "indexed": false,
          "internalType": "address payable",
          "name": "walAdd",
          "type": "address"
        }
      ],
      "name": "UserRegistered",
      "type": "event"
    },
    {
      "constant": true,
      "inputs": [],
      "name": "blockCount",
      "outputs": [
        {
          "internalType": "uint256",
          "name": "",
          "type": "uint256"
        }
      ],
      "payable": false,
      "stateMutability": "view",
      "type": "function"
    },
    {
      "constant": true,
      "inputs": [],
      "name": "blockSize",
      "outputs": [
        {
          "internalType": "uint256",
          "name": "",
          "type": "uint256"
        }
      ],
      "payable": false,
      "stateMutability": "view",
      "type": "function"
    },
    {
      "constant": true,
      "inputs": [
        {
          "internalType": "uint256",
          "name": "",
          "type": "uint256"
        }
      ],
      "name": "chain",
      "outputs": [
        {
          "internalType": "uint256",
          "name": "blockId",
          "type": "uint256"
        },
        {
          "internalType": "bytes32",
          "name": "blockHash",
          "type": "bytes32"
        },
        {
          "internalType": "bytes32",
          "name": "preHash",
          "type": "bytes32"
        },
        {
          "internalType": "uint256",
          "name": "proj1",
          "type": "uint256"
        },
        {
          "internalType": "uint256",
          "name": "proj2",
          "type": "uint256"
        },
        {
          "internalType": "uint256",
          "name": "proj3",
          "type": "uint256"
        }
      ],
      "payable": false,
      "stateMutability": "view",
      "type": "function"
    },
    {
      "constant": true,
      "inputs": [],
      "name": "name",
      "outputs": [
        {
          "internalType": "string",
          "name": "",
          "type": "string"
        }
      ],
      "payable": false,
      "stateMutability": "view",
      "type": "function"
    },
    {
      "constant": true,
      "inputs": [
        {
          "internalType": "uint256",
          "name": "",
          "type": "uint256"
        }
      ],
      "name": "projBlock",
      "outputs": [
        {
          "internalType": "uint256",
          "name": "projId",
          "type": "uint256"
        },
        {
          "internalType": "string",
          "name": "prevHash",
          "type": "string"
        },
        {
          "internalType": "string",
          "name": "projHash",
          "type": "string"
        },
        {
          "internalType": "uint256",
          "name": "projSize",
          "type": "uint256"
        },
        {
          "internalType": "string",
          "name": "projType",
          "type": "string"
        },
        {
          "internalType": "string",
          "name": "projName",
          "type": "string"
        },
        {
          "internalType": "string",
          "name": "projDesc",
          "type": "string"
        },
        {
          "internalType": "uint256",
          "name": "uploadTime",
          "type": "uint256"
        },
        {
          "internalType": "address payable",
          "name": "auther",
          "type": "address"
        }
      ],
      "payable": false,
      "stateMutability": "view",
      "type": "function"
    },
    {
      "constant": true,
      "inputs": [],
      "name": "projCount",
      "outputs": [
        {
          "internalType": "uint256",
          "name": "",
          "type": "uint256"
        }
      ],
      "payable": false,
      "stateMutability": "view",
      "type": "function"
    },
    {
      "constant": true,
      "inputs": [
        {
          "internalType": "uint256",
          "name": "",
          "type": "uint256"
        }
      ],
      "name": "projects",
      "outputs": [
        {
          "internalType": "uint256",
          "name": "projId",
          "type": "uint256"
        },
        {
          "internalType": "string",
          "name": "prevHash",
          "type": "string"
        },
        {
          "internalType": "string",
          "name": "projHash",
          "type": "string"
        },
        {
          "internalType": "uint256",
          "name": "projSize",
          "type": "uint256"
        },
        {
          "internalType": "string",
          "name": "projType",
          "type": "string"
        },
        {
          "internalType": "string",
          "name": "projName",
          "type": "string"
        },
        {
          "internalType": "string",
          "name": "projDesc",
          "type": "string"
        },
        {
          "internalType": "uint256",
          "name": "uploadTime",
          "type": "uint256"
        },
        {
          "internalType": "address payable",
          "name": "auther",
          "type": "address"
        }
      ],
      "payable": false,
      "stateMutability": "view",
      "type": "function"
    },
    {
      "constant": true,
      "inputs": [],
      "name": "userCount",
      "outputs": [
        {
          "internalType": "uint256",
          "name": "",
          "type": "uint256"
        }
      ],
      "payable": false,
      "stateMutability": "view",
      "type": "function"
    },
    {
      "constant": true,
      "inputs": [
        {
          "internalType": "uint256",
          "name": "",
          "type": "uint256"
        }
      ],
      "name": "users",
      "outputs": [
        {
          "internalType": "uint256",
          "name": "userId",
          "type": "uint256"
        },
        {
          "internalType": "string",
          "name": "userName",
          "type": "string"
        },
        {
          "internalType": "string",
          "name": "userPwd",
          "type": "string"
        },
        {
          "internalType": "address payable",
          "name": "walAdd",
          "type": "address"
        }
      ],
      "payable": false,
      "stateMutability": "view",
      "type": "function"
    },
    {
      "constant": false,
      "inputs": [
        {
          "internalType": "string",
          "name": "_userName",
          "type": "string"
        },
        {
          "internalType": "string",
          "name": "_pwd",
          "type": "string"
        }
      ],
      "name": "regUser",
      "outputs": [],
      "payable": false,
      "stateMutability": "nonpayable",
      "type": "function"
    },
    {
      "constant": false,
      "inputs": [],
      "name": "addToChain",
      "outputs": [],
      "payable": false,
      "stateMutability": "nonpayable",
      "type": "function"
    },
    {
      "constant": false,
      "inputs": [
        {
          "internalType": "string",
          "name": "_projHash",
          "type": "string"
        },
        {
          "internalType": "uint256",
          "name": "_projSize",
          "type": "uint256"
        },
        {
          "internalType": "string",
          "name": "_projType",
          "type": "string"
        },
        {
          "internalType": "string",
          "name": "_projName",
          "type": "string"
        },
        {
          "internalType": "string",
          "name": "_projDesc",
          "type": "string"
        }
      ],
      "name": "uploadProj",
      "outputs": [],
      "payable": false,
      "stateMutability": "nonpayable",
      "type": "function"
    }
  ],
  "bytecode": "0x60806040526040518060400160405280600c81526020017f50726f6a656374436861696e000000000000000000000000000000000000000081525060009080519060200190620000519291906200007a565b5060006001556000600355600060055560006007553480156200007357600080fd5b5062000129565b828054600181600116156101000203166002900490600052602060002090601f016020900481019282601f10620000bd57805160ff1916838001178555620000ee565b82800160010185558215620000ee579182015b82811115620000ed578251825591602001919060010190620000d0565b5b509050620000fd919062000101565b5090565b6200012691905b808211156200012257600081600090555060010162000108565b5090565b90565b61277b80620001396000396000f3fe608060405234801561001057600080fd5b50600436106100b45760003560e01c80635852cc0c116100715780635852cc0c146106b6578063620137fe1461071b578063af34b6ae146109a5578063d7d1327f146109c3578063f490f9b3146109e1578063faad5c97146109eb576100b4565b806306fdde03146100b957806307225b4d1461013c57806307973ccf1461015a578063107046bd146101785780631ffed89214610417578063365b98b214610569575b600080fd5b6100c1610c8a565b6040518080602001828103825283818151815260200191508051906020019080838360005b838110156101015780820151818401526020810190506100e6565b50505050905090810190601f16801561012e5780820380516001836020036101000a031916815260200191505b509250505060405180910390f35b610144610d28565b6040518082815260200191505060405180910390f35b610162610d2e565b6040518082815260200191505060405180910390f35b6101a46004803603602081101561018e57600080fd5b8101908080359060200190929190505050610d34565b604051808a815260200180602001806020018981526020018060200180602001806020018881526020018773ffffffffffffffffffffffffffffffffffffffff1673ffffffffffffffffffffffffffffffffffffffff16815260200186810386528e818151815260200191508051906020019080838360005b8381101561023857808201518184015260208101905061021d565b50505050905090810190601f1680156102655780820380516001836020036101000a031916815260200191505b5086810385528d818151815260200191508051906020019080838360005b8381101561029e578082015181840152602081019050610283565b50505050905090810190601f1680156102cb5780820380516001836020036101000a031916815260200191505b5086810384528b818151815260200191508051906020019080838360005b838110156103045780820151818401526020810190506102e9565b50505050905090810190601f1680156103315780820380516001836020036101000a031916815260200191505b5086810383528a818151815260200191508051906020019080838360005b8381101561036a57808201518184015260208101905061034f565b50505050905090810190601f1680156103975780820380516001836020036101000a031916815260200191505b50868103825289818151815260200191508051906020019080838360005b838110156103d05780820151818401526020810190506103b5565b50505050905090810190601f1680156103fd5780820380516001836020036101000a031916815260200191505b509e50505050505050505050505050505060405180910390f35b6105676004803603604081101561042d57600080fd5b810190808035906020019064010000000081111561044a57600080fd5b82018360208201111561045c57600080fd5b8035906020019184600183028401116401000000008311171561047e57600080fd5b91908080601f016020809104026020016040519081016040528093929190818152602001838380828437600081840152601f19601f820116905080830192505050505050509192919290803590602001906401000000008111156104e157600080fd5b8201836020820111156104f357600080fd5b8035906020019184600183028401116401000000008311171561051557600080fd5b91908080601f016020809104026020016040519081016040528093929190818152602001838380828437600081840152601f19601f82011690508083019250505050505050919291929050505061109a565b005b6105956004803603602081101561057f57600080fd5b8101908080359060200190929190505050611329565b6040518085815260200180602001806020018473ffffffffffffffffffffffffffffffffffffffff1673ffffffffffffffffffffffffffffffffffffffff168152602001838103835286818151815260200191508051906020019080838360005b838110156106115780820151818401526020810190506105f6565b50505050905090810190601f16801561063e5780820380516001836020036101000a031916815260200191505b50838103825285818151815260200191508051906020019080838360005b8381101561067757808201518184015260208101905061065c565b50505050905090810190601f1680156106a45780820380516001836020036101000a031916815260200191505b50965050505050505060405180910390f35b6106e2600480360360208110156106cc57600080fd5b81019080803590602001909291905050506114a9565b60405180878152602001868152602001858152602001848152602001838152602001828152602001965050505050505060405180910390f35b6109a3600480360360a081101561073157600080fd5b810190808035906020019064010000000081111561074e57600080fd5b82018360208201111561076057600080fd5b8035906020019184600183028401116401000000008311171561078257600080fd5b91908080601f016020809104026020016040519081016040528093929190818152602001838380828437600081840152601f19601f82011690508083019250505050505050919291929080359060200190929190803590602001906401000000008111156107ef57600080fd5b82018360208201111561080157600080fd5b8035906020019184600183028401116401000000008311171561082357600080fd5b91908080601f016020809104026020016040519081016040528093929190818152602001838380828437600081840152601f19601f8201169050808301925050505050505091929192908035906020019064010000000081111561088657600080fd5b82018360208201111561089857600080fd5b803590602001918460018302840111640100000000831117156108ba57600080fd5b91908080601f016020809104026020016040519081016040528093929190818152602001838380828437600081840152601f19601f8201169050808301925050505050505091929192908035906020019064010000000081111561091d57600080fd5b82018360208201111561092f57600080fd5b8035906020019184600183028401116401000000008311171561095157600080fd5b91908080601f016020809104026020016040519081016040528093929190818152602001838380828437600081840152601f19601f8201169050808301925050505050505091929192905050506114e5565b005b6109ad611b5c565b6040518082815260200191505060405180910390f35b6109cb611b62565b6040518082815260200191505060405180910390f35b6109e9611b68565b005b610a1760048036036020811015610a0157600080fd5b81019080803590602001909291905050506122b4565b604051808a815260200180602001806020018981526020018060200180602001806020018881526020018773ffffffffffffffffffffffffffffffffffffffff1673ffffffffffffffffffffffffffffffffffffffff16815260200186810386528e818151815260200191508051906020019080838360005b83811015610aab578082015181840152602081019050610a90565b50505050905090810190601f168015610ad85780820380516001836020036101000a031916815260200191505b5086810385528d818151815260200191508051906020019080838360005b83811015610b11578082015181840152602081019050610af6565b50505050905090810190601f168015610b3e5780820380516001836020036101000a031916815260200191505b5086810384528b818151815260200191508051906020019080838360005b83811015610b77578082015181840152602081019050610b5c565b50505050905090810190601f168015610ba45780820380516001836020036101000a031916815260200191505b5086810383528a818151815260200191508051906020019080838360005b83811015610bdd578082015181840152602081019050610bc2565b50505050905090810190601f168015610c0a5780820380516001836020036101000a031916815260200191505b50868103825289818151815260200191508051906020019080838360005b83811015610c43578082015181840152602081019050610c28565b50505050905090810190601f168015610c705780820380516001836020036101000a031916815260200191505b509e50505050505050505050505050505060405180910390f35b60008054600181600116156101000203166002900480601f016020809104026020016040519081016040528092919081815260200182805460018160011615610100020316600290048015610d205780601f10610cf557610100808354040283529160200191610d20565b820191906000526020600020905b815481529060010190602001808311610d0357829003601f168201915b505050505081565b60035481565b60075481565b6006602052806000526040600020600091509050806000015490806001018054600181600116156101000203166002900480601f016020809104026020016040519081016040528092919081815260200182805460018160011615610100020316600290048015610de65780601f10610dbb57610100808354040283529160200191610de6565b820191906000526020600020905b815481529060010190602001808311610dc957829003601f168201915b505050505090806002018054600181600116156101000203166002900480601f016020809104026020016040519081016040528092919081815260200182805460018160011615610100020316600290048015610e845780601f10610e5957610100808354040283529160200191610e84565b820191906000526020600020905b815481529060010190602001808311610e6757829003601f168201915b505050505090806003015490806004018054600181600116156101000203166002900480601f016020809104026020016040519081016040528092919081815260200182805460018160011615610100020316600290048015610f285780601f10610efd57610100808354040283529160200191610f28565b820191906000526020600020905b815481529060010190602001808311610f0b57829003601f168201915b505050505090806005018054600181600116156101000203166002900480601f016020809104026020016040519081016040528092919081815260200182805460018160011615610100020316600290048015610fc65780601f10610f9b57610100808354040283529160200191610fc6565b820191906000526020600020905b815481529060010190602001808311610fa957829003601f168201915b505050505090806006018054600181600116156101000203166002900480601f0160208091040260200160405190810160405280929190818152602001828054600181600116156101000203166002900480156110645780601f1061103957610100808354040283529160200191611064565b820191906000526020600020905b81548152906001019060200180831161104757829003601f168201915b5050505050908060070154908060080160009054906101000a900473ffffffffffffffffffffffffffffffffffffffff16905089565b60008251116110a857600080fd5b60008151116110b657600080fd5b600073ffffffffffffffffffffffffffffffffffffffff163373ffffffffffffffffffffffffffffffffffffffff1614156110f057600080fd5b600760008154809291906001019190505550604051806080016040528060075481526020018381526020018281526020013373ffffffffffffffffffffffffffffffffffffffff1681525060086000600754815260200190815260200160002060008201518160000155602082015181600101908051906020019061117692919061261a565b50604082015181600201908051906020019061119392919061261a565b5060608201518160030160006101000a81548173ffffffffffffffffffffffffffffffffffffffff021916908373ffffffffffffffffffffffffffffffffffffffff1602179055509050507f40338c70a446f0ba365fc0489113a2f74ba912dae0f24fb8f8568f446e6f0c806007548383336040518085815260200180602001806020018473ffffffffffffffffffffffffffffffffffffffff1673ffffffffffffffffffffffffffffffffffffffff168152602001838103835286818151815260200191508051906020019080838360005b83811015611281578082015181840152602081019050611266565b50505050905090810190601f1680156112ae5780820380516001836020036101000a031916815260200191505b50838103825285818151815260200191508051906020019080838360005b838110156112e75780820151818401526020810190506112cc565b50505050905090810190601f1680156113145780820380516001836020036101000a031916815260200191505b50965050505050505060405180910390a15050565b6008602052806000526040600020600091509050806000015490806001018054600181600116156101000203166002900480601f0160208091040260200160405190810160405280929190818152602001828054600181600116156101000203166002900480156113db5780601f106113b0576101008083540402835291602001916113db565b820191906000526020600020905b8154815290600101906020018083116113be57829003601f168201915b505050505090806002018054600181600116156101000203166002900480601f0160208091040260200160405190810160405280929190818152602001828054600181600116156101000203166002900480156114795780601f1061144e57610100808354040283529160200191611479565b820191906000526020600020905b81548152906001019060200180831161145c57829003601f168201915b5050505050908060030160009054906101000a900473ffffffffffffffffffffffffffffffffffffffff16905084565b60046020528060005260406000206000915090508060000154908060010154908060020154908060030154908060040154908060050154905086565b60008551116114f357600080fd5b600083511161150157600080fd5b600082511161150f57600080fd5b600081511161151d57600080fd5b600073ffffffffffffffffffffffffffffffffffffffff163373ffffffffffffffffffffffffffffffffffffffff16141561155757600080fd5b6000841161156457600080fd5b606060006001541115611629576002600060015481526020019081526020016000206002018054600181600116156101000203166002900480601f01602080910402602001604051908101604052809291908181526020018280546001816001161561010002031660029004801561161d5780601f106115f25761010080835404028352916020019161161d565b820191906000526020600020905b81548152906001019060200180831161160057829003601f168201915b50505050509050611726565b600060055411156116ec576006600060055481526020019081526020016000206002018054600181600116156101000203166002900480601f0160208091040260200160405190810160405280929190818152602001828054600181600116156101000203166002900480156116e05780601f106116b5576101008083540402835291602001916116e0565b820191906000526020600020905b8154815290600101906020018083116116c357829003601f168201915b50505050509050611725565b6040518060400160405280600781526020017f67656e657369730000000000000000000000000000000000000000000000000081525090505b5b6001600081548092919060010191905055506040518061012001604052806001546005540181526020018281526020018781526020018681526020018581526020018481526020018381526020014281526020013373ffffffffffffffffffffffffffffffffffffffff168152506002600060015481526020019081526020016000206000820151816000015560208201518160010190805190602001906117cf92919061261a565b5060408201518160020190805190602001906117ec92919061261a565b5060608201518160030155608082015181600401908051906020019061181392919061261a565b5060a082015181600501908051906020019061183092919061261a565b5060c082015181600601908051906020019061184d92919061261a565b5060e082015181600701556101008201518160080160006101000a81548173ffffffffffffffffffffffffffffffffffffffff021916908373ffffffffffffffffffffffffffffffffffffffff1602179055509050506003600154106118b6576118b5611b68565b5b7f217255865ef8ce0ecdc0a064a6a96094458d191b62ea6e021ecd77a0b98697a06005548288888888884233604051808a815260200180602001806020018981526020018060200180602001806020018881526020018773ffffffffffffffffffffffffffffffffffffffff1673ffffffffffffffffffffffffffffffffffffffff16815260200186810386528e818151815260200191508051906020019080838360005b8381101561197657808201518184015260208101905061195b565b50505050905090810190601f1680156119a35780820380516001836020036101000a031916815260200191505b5086810385528d818151815260200191508051906020019080838360005b838110156119dc5780820151818401526020810190506119c1565b50505050905090810190601f168015611a095780820380516001836020036101000a031916815260200191505b5086810384528b818151815260200191508051906020019080838360005b83811015611a42578082015181840152602081019050611a27565b50505050905090810190601f168015611a6f5780820380516001836020036101000a031916815260200191505b5086810383528a818151815260200191508051906020019080838360005b83811015611aa8578082015181840152602081019050611a8d565b50505050905090810190601f168015611ad55780820380516001836020036101000a031916815260200191505b50868103825289818151815260200191508051906020019080838360005b83811015611b0e578082015181840152602081019050611af3565b50505050905090810190601f168015611b3b5780820380516001836020036101000a031916815260200191505b509e50505050505050505050505050505060405180910390a1505050505050565b60055481565b60015481565b60006001819055506000806003541115611b98576004600060035481526020019081526020016000206001015490505b600360008154809291906001019190505550600354600460006003548152602001908152602001600020600001819055506002600060018152602001908152602001600020600001546004600060035481526020019081526020016000206003018190555060026000600281526020019081526020016000206000015460046000600354815260200190815260200160002060040181905550600260006003815260200190815260200160002060000154600460006003548152602001908152602001600020600501819055506002600060018152602001908152602001600020600201600260006002815260200190815260200160002060020160026000600381526020019081526020016000206002016040516020018084805460018160011615610100020316600290048015611d085780601f10611ce6576101008083540402835291820191611d08565b820191906000526020600020905b815481529060010190602001808311611cf4575b505083805460018160011615610100020316600290048015611d615780601f10611d3f576101008083540402835291820191611d61565b820191906000526020600020905b815481529060010190602001808311611d4d575b505082805460018160011615610100020316600290048015611dba5780601f10611d98576101008083540402835291820191611dba565b820191906000526020600020905b815481529060010190602001808311611da6575b505093505050506040516020818303038152906040528051906020012060046000600354815260200190815260200160002060010181905550806004600060035481526020019081526020016000206002018190555060056000815480929190600101919050555060026000600181526020019081526020016000206006600060055481526020019081526020016000206000820154816000015560018201816001019080546001816001161561010002031660029004611e7c92919061269a565b5060028201816002019080546001816001161561010002031660029004611ea492919061269a565b506003820154816003015560048201816004019080546001816001161561010002031660029004611ed692919061269a565b5060058201816005019080546001816001161561010002031660029004611efe92919061269a565b5060068201816006019080546001816001161561010002031660029004611f2692919061269a565b50600782015481600701556008820160009054906101000a900473ffffffffffffffffffffffffffffffffffffffff168160080160006101000a81548173ffffffffffffffffffffffffffffffffffffffff021916908373ffffffffffffffffffffffffffffffffffffffff1602179055509050506005600081548092919060010191905055506002600060028152602001908152602001600020600660006005548152602001908152602001600020600082015481600001556001820181600101908054600181600116156101000203166002900461200792919061269a565b506002820181600201908054600181600116156101000203166002900461202f92919061269a565b50600382015481600301556004820181600401908054600181600116156101000203166002900461206192919061269a565b506005820181600501908054600181600116156101000203166002900461208992919061269a565b50600682018160060190805460018160011615610100020316600290046120b192919061269a565b50600782015481600701556008820160009054906101000a900473ffffffffffffffffffffffffffffffffffffffff168160080160006101000a81548173ffffffffffffffffffffffffffffffffffffffff021916908373ffffffffffffffffffffffffffffffffffffffff1602179055509050506005600081548092919060010191905055506002600060038152602001908152602001600020600660006005548152602001908152602001600020600082015481600001556001820181600101908054600181600116156101000203166002900461219292919061269a565b50600282018160020190805460018160011615610100020316600290046121ba92919061269a565b5060038201548160030155600482018160040190805460018160011615610100020316600290046121ec92919061269a565b506005820181600501908054600181600116156101000203166002900461221492919061269a565b506006820181600601908054600181600116156101000203166002900461223c92919061269a565b50600782015481600701556008820160009054906101000a900473ffffffffffffffffffffffffffffffffffffffff168160080160006101000a81548173ffffffffffffffffffffffffffffffffffffffff021916908373ffffffffffffffffffffffffffffffffffffffff16021790555090505050565b6002602052806000526040600020600091509050806000015490806001018054600181600116156101000203166002900480601f0160208091040260200160405190810160405280929190818152602001828054600181600116156101000203166002900480156123665780601f1061233b57610100808354040283529160200191612366565b820191906000526020600020905b81548152906001019060200180831161234957829003601f168201915b505050505090806002018054600181600116156101000203166002900480601f0160208091040260200160405190810160405280929190818152602001828054600181600116156101000203166002900480156124045780601f106123d957610100808354040283529160200191612404565b820191906000526020600020905b8154815290600101906020018083116123e757829003601f168201915b505050505090806003015490806004018054600181600116156101000203166002900480601f0160208091040260200160405190810160405280929190818152602001828054600181600116156101000203166002900480156124a85780601f1061247d576101008083540402835291602001916124a8565b820191906000526020600020905b81548152906001019060200180831161248b57829003601f168201915b505050505090806005018054600181600116156101000203166002900480601f0160208091040260200160405190810160405280929190818152602001828054600181600116156101000203166002900480156125465780601f1061251b57610100808354040283529160200191612546565b820191906000526020600020905b81548152906001019060200180831161252957829003601f168201915b505050505090806006018054600181600116156101000203166002900480601f0160208091040260200160405190810160405280929190818152602001828054600181600116156101000203166002900480156125e45780601f106125b9576101008083540402835291602001916125e4565b820191906000526020600020905b8154815290600101906020018083116125c757829003601f168201915b5050505050908060070154908060080160009054906101000a900473ffffffffffffffffffffffffffffffffffffffff16905089565b828054600181600116156101000203166002900490600052602060002090601f016020900481019282601f1061265b57805160ff1916838001178555612689565b82800160010185558215612689579182015b8281111561268857825182559160200191906001019061266d565b5b5090506126969190612721565b5090565b828054600181600116156101000203166002900490600052602060002090601f016020900481019282601f106126d35780548555612710565b8280016001018555821561271057600052602060002091601f016020900482015b8281111561270f5782548255916001019190600101906126f4565b5b50905061271d9190612721565b5090565b61274391905b8082111561273f576000816000905550600101612727565b5090565b9056fea265627a7a72315820d717c90c4aa49e0e89fe82591a0a37fc35c861bae123264caad5abf67e67879d64736f6c63430005100032",
  "source": "pragma solidity ^0.5.0;\n\ncontract ProjectChain {\n    string public name = \"ProjectChain\";\n\n    // uint256 public currentUser = 0;\n\n    uint256 public blockSize = 0;\n    mapping(uint256 => Project) public projBlock;\n\n    uint256 public blockCount = 0;\n    mapping(uint256 => Block) public chain;\n\n    uint256 public projCount = 0;\n    mapping(uint256 => Project) public projects;\n\n    uint256 public userCount = 0;\n    mapping(uint256 => User) public users;\n\n    struct User {\n        uint256 userId;\n        string userName;\n        string userPwd;\n        address payable walAdd;\n        mapping(uint256 => Project)  myProjects;\n    }\n    struct Block {\n        uint256 blockId;\n        bytes32 blockHash;\n        bytes32 preHash;\n        uint256 proj1;\n        uint256 proj2;\n        uint256 proj3;\n    }\n    struct Project {\n        uint256 projId;\n        string prevHash;\n        string projHash;\n        uint256 projSize;\n        string projType;\n        string projName;\n        string projDesc;\n        uint256 uploadTime;\n        address payable auther;\n    }\n    \n    event UserRegistered(\n        uint256 userId,\n        string userName,\n        string userPwd,\n        address payable walAdd\n    );\n    event BlockMined(\n        uint256 blockId,\n        bytes32 blockHash,\n        bytes32 preHash\n    );\n    event ProjUploaded(\n        uint256 projId,\n        string prevHash,\n        string projHash,\n        uint256 projSize,\n        string projType,\n        string projName,\n        string projDesc,\n        uint256 uploadTime,\n        address payable auther\n    );\n\n    constructor() public {}\n\n    function regUser(string memory _userName, string memory _pwd) public {\n        require(bytes(_userName).length > 0);\n        require(bytes(_pwd).length > 0);\n        require(msg.sender != address(0));\n        userCount++;\n        users[userCount] = User(userCount, _userName, _pwd, msg.sender);\n        emit UserRegistered(userCount, _userName, _pwd, msg.sender);\n    }\n\n    function addToChain() public{\n        blockSize=0;\n        bytes32 pre;\n        if(blockCount>0) pre = chain[blockCount].blockHash;\n        blockCount++;\n        chain[blockCount].blockId = blockCount;\n        chain[blockCount].proj1 = projBlock[1].projId;\n        chain[blockCount].proj2 = projBlock[2].projId;\n        chain[blockCount].proj3 = projBlock[3].projId;\n        chain[blockCount].blockHash = keccak256(abi.encodePacked(projBlock[1].projHash,projBlock[2].projHash,projBlock[3].projHash));\n        chain[blockCount].preHash = pre;\n        projCount++;\n        projects[projCount]=projBlock[1];\n        projCount++;\n        projects[projCount]=projBlock[2];\n        projCount++;\n        projects[projCount]=projBlock[3];\n    }\n\n    function uploadProj(\n        string memory _projHash,\n        uint256 _projSize,\n        string memory _projType,\n        string memory _projName,\n        string memory _projDesc\n    ) public {\n        require(bytes(_projHash).length > 0);\n        require(bytes(_projType).length > 0);\n        require(bytes(_projName).length > 0);\n        require(bytes(_projDesc).length > 0);\n        require(msg.sender != address(0));\n\n        require(_projSize > 0);\n\n        string memory prev;\n        if (blockSize > 0) prev = projBlock[blockSize].projHash;\n        else if (projCount > 0) prev = projects[projCount].projHash;\n        else prev = \"genesis\";\n\n        blockSize++;\n        projBlock[blockSize] = Project(\n            projCount+blockSize,\n            prev,\n            _projHash,\n            _projSize,\n            _projType,\n            _projName,\n            _projDesc,\n            now,\n            msg.sender\n        );\n        if(blockSize>=3){\n        addToChain();\n        }\n        emit ProjUploaded(\n            projCount,\n            prev,\n            _projHash,\n            _projSize,\n            _projType,\n            _projName,\n            _projDesc,\n            now,\n            msg.sender\n        );\n    }\n}\n",
  "sourcePath": "D:\\Projects\\ProjectChain\\src\\contracts\\ProjectChain.sol",
  "compiler": {
    "name": "solc",
    "version": "0.5.16+commit.9c3226ce.Emscripten.clang"
  },
  "schemaVersion": "3.4.10",
  "updatedAt": "2023-01-03T04:34:23.071Z",
  "networkType": "ethereum",
  "devdoc": {
    "methods": {}
  },
  "userdoc": {
    "methods": {}
  }
}